{
  "contractName": "CashFlowManagement",
  "abi": [
    {
      "constant": true,
      "inputs": [
        {
          "name": "name",
          "type": "string"
        },
        {
          "name": "id",
          "type": "int256"
        }
      ],
      "name": "getsellingDetailsForGraph",
      "outputs": [
        {
          "name": "date",
          "type": "string"
        },
        {
          "name": "sellbalance",
          "type": "int256"
        },
        {
          "name": "productinventry",
          "type": "int256"
        }
      ],
      "payable": false,
      "stateMutability": "view",
      "type": "function"
    },
    {
      "constant": true,
      "inputs": [
        {
          "name": "name",
          "type": "string"
        }
      ],
      "name": "getSellingQuantity",
      "outputs": [
        {
          "name": "_name",
          "type": "string"
        },
        {
          "name": "sellingId",
          "type": "int256"
        }
      ],
      "payable": false,
      "stateMutability": "view",
      "type": "function"
    },
    {
      "constant": true,
      "inputs": [],
      "name": "component1_Inventry",
      "outputs": [
        {
          "name": "",
          "type": "int256"
        }
      ],
      "payable": false,
      "stateMutability": "view",
      "type": "function"
    },
    {
      "constant": true,
      "inputs": [],
      "name": "SME_balance",
      "outputs": [
        {
          "name": "",
          "type": "int256"
        }
      ],
      "payable": false,
      "stateMutability": "view",
      "type": "function"
    },
    {
      "constant": true,
      "inputs": [
        {
          "name": "name",
          "type": "string"
        },
        {
          "name": "id",
          "type": "int256"
        }
      ],
      "name": "buyingDetails",
      "outputs": [
        {
          "name": "quantity1",
          "type": "int256"
        },
        {
          "name": "price_per_quantity1",
          "type": "int256"
        },
        {
          "name": "quantity2",
          "type": "int256"
        },
        {
          "name": "price_per_quantity2",
          "type": "int256"
        },
        {
          "name": "date",
          "type": "string"
        },
        {
          "name": "invoice",
          "type": "string"
        }
      ],
      "payable": false,
      "stateMutability": "view",
      "type": "function"
    },
    {
      "constant": false,
      "inputs": [
        {
          "name": "SME_name",
          "type": "string"
        },
        {
          "name": "quantity",
          "type": "int256"
        },
        {
          "name": "price_per_quantity",
          "type": "int256"
        },
        {
          "name": "date",
          "type": "string"
        },
        {
          "name": "invoice",
          "type": "string"
        }
      ],
      "name": "addSelling",
      "outputs": [],
      "payable": false,
      "stateMutability": "nonpayable",
      "type": "function"
    },
    {
      "constant": true,
      "inputs": [
        {
          "name": "name",
          "type": "string"
        }
      ],
      "name": "getBuyingQuantity",
      "outputs": [
        {
          "name": "_name",
          "type": "string"
        },
        {
          "name": "buyingId",
          "type": "int256"
        }
      ],
      "payable": false,
      "stateMutability": "view",
      "type": "function"
    },
    {
      "constant": false,
      "inputs": [
        {
          "name": "SME_name",
          "type": "string"
        },
        {
          "name": "quantity1",
          "type": "int256"
        },
        {
          "name": "price_per_quantity1",
          "type": "int256"
        },
        {
          "name": "quantity2",
          "type": "int256"
        },
        {
          "name": "price_per_quantity2",
          "type": "int256"
        },
        {
          "name": "date",
          "type": "string"
        },
        {
          "name": "invoice",
          "type": "string"
        }
      ],
      "name": "addBuying",
      "outputs": [],
      "payable": false,
      "stateMutability": "nonpayable",
      "type": "function"
    },
    {
      "constant": true,
      "inputs": [],
      "name": "component2_Inventry",
      "outputs": [
        {
          "name": "",
          "type": "int256"
        }
      ],
      "payable": false,
      "stateMutability": "view",
      "type": "function"
    },
    {
      "constant": true,
      "inputs": [],
      "name": "SME_name",
      "outputs": [
        {
          "name": "",
          "type": "string"
        }
      ],
      "payable": false,
      "stateMutability": "view",
      "type": "function"
    },
    {
      "constant": true,
      "inputs": [
        {
          "name": "name",
          "type": "string"
        },
        {
          "name": "id",
          "type": "int256"
        }
      ],
      "name": "sellingDetails",
      "outputs": [
        {
          "name": "quantity",
          "type": "int256"
        },
        {
          "name": "price_per_quantity",
          "type": "int256"
        },
        {
          "name": "date",
          "type": "string"
        },
        {
          "name": "invoice",
          "type": "string"
        },
        {
          "name": "sellbalance",
          "type": "int256"
        },
        {
          "name": "productinventry",
          "type": "int256"
        }
      ],
      "payable": false,
      "stateMutability": "view",
      "type": "function"
    },
    {
      "constant": true,
      "inputs": [],
      "name": "productInventry",
      "outputs": [
        {
          "name": "",
          "type": "int256"
        }
      ],
      "payable": false,
      "stateMutability": "view",
      "type": "function"
    },
    {
      "constant": true,
      "inputs": [
        {
          "name": "name",
          "type": "string"
        },
        {
          "name": "id",
          "type": "int256"
        }
      ],
      "name": "getBuyingDetailsForGraph",
      "outputs": [
        {
          "name": "date",
          "type": "string"
        },
        {
          "name": "smeBalance",
          "type": "int256"
        },
        {
          "name": "component1inventry",
          "type": "int256"
        },
        {
          "name": "component2inventry",
          "type": "int256"
        }
      ],
      "payable": false,
      "stateMutability": "view",
      "type": "function"
    },
    {
      "inputs": [],
      "payable": false,
      "stateMutability": "nonpayable",
      "type": "constructor"
    }
  ],
  "bytecode": "0x606060405234156200001057600080fd5b6040805190810160405280600381526020017f534d450000000000000000000000000000000000000000000000000000000000815250600090805190602001906200005d92919062000089565b50620186a06001819055506103e86002819055506103e86003819055506103e860048190555062000138565b828054600181600116156101000203166002900490600052602060002090601f016020900481019282601f10620000cc57805160ff1916838001178555620000fd565b82800160010185558215620000fd579182015b82811115620000fc578251825591602001919060010190620000df565b5b5090506200010c919062000110565b5090565b6200013591905b808211156200013157600081600090555060010162000117565b5090565b90565b612be180620001486000396000f3006060604052600436106100c5576000357c0100000000000000000000000000000000000000000000000000000000900463ffffffff16806329bdc2c2146100ca57806343e949ba146101b757806353d95a5e1461029457806356b93d84146102bd57806356f83319146102e65780636b5161681461044d578063762b7830146105425780637a2056ac1461061f5780638a3ecf1c146107265780638a4295dc1461074f57806397beb2db146107dd578063cbfdfc1d14610944578063d74448541461096d575b600080fd5b34156100d557600080fd5b61012e600480803590602001908201803590602001908080601f01602080910402602001604051908101604052809392919081815260200183838082843782019150505050505091908035906020019091905050610a61565b6040518080602001848152602001838152602001828103825285818151815260200191508051906020019080838360005b8381101561017a57808201518184015260208101905061015f565b50505050905090810190601f1680156101a75780820380516001836020036101000a031916815260200191505b5094505050505060405180910390f35b34156101c257600080fd5b610212600480803590602001908201803590602001908080601f01602080910402602001604051908101604052809392919081815260200183838082843782019150505050505091905050610c9d565b6040518080602001838152602001828103825284818151815260200191508051906020019080838360005b8381101561025857808201518184015260208101905061023d565b50505050905090810190601f1680156102855780820380516001836020036101000a031916815260200191505b50935050505060405180910390f35b341561029f57600080fd5b6102a7610d20565b6040518082815260200191505060405180910390f35b34156102c857600080fd5b6102d0610d26565b6040518082815260200191505060405180910390f35b34156102f157600080fd5b61034a600480803590602001908201803590602001908080601f01602080910402602001604051908101604052809392919081815260200183838082843782019150505050505091908035906020019091905050610d2c565b604051808781526020018681526020018581526020018481526020018060200180602001838103835285818151815260200191508051906020019080838360005b838110156103a657808201518184015260208101905061038b565b50505050905090810190601f1680156103d35780820380516001836020036101000a031916815260200191505b50838103825284818151815260200191508051906020019080838360005b8381101561040c5780820151818401526020810190506103f1565b50505050905090810190601f1680156104395780820380516001836020036101000a031916815260200191505b509850505050505050505060405180910390f35b341561045857600080fd5b610540600480803590602001908201803590602001908080601f0160208091040260200160405190810160405280939291908181526020018383808284378201915050505050509190803590602001909190803590602001909190803590602001908201803590602001908080601f0160208091040260200160405190810160405280939291908181526020018383808284378201915050505050509190803590602001908201803590602001908080601f016020809104026020016040519081016040528093929190818152602001838380828437820191505050505050919050506111a0565b005b341561054d57600080fd5b61059d600480803590602001908201803590602001908080601f016020809104026020016040519081016040528093929190818152602001838380828437820191505050505050919050506118a2565b6040518080602001838152602001828103825284818151815260200191508051906020019080838360005b838110156105e35780820151818401526020810190506105c8565b50505050905090810190601f1680156106105780820380516001836020036101000a031916815260200191505b50935050505060405180910390f35b341561062a57600080fd5b610724600480803590602001908201803590602001908080601f0160208091040260200160405190810160405280939291908181526020018383808284378201915050505050509190803590602001909190803590602001909190803590602001909190803590602001909190803590602001908201803590602001908080601f0160208091040260200160405190810160405280939291908181526020018383808284378201915050505050509190803590602001908201803590602001908080601f01602080910402602001604051908101604052809392919081815260200183838082843782019150505050505091905050611925565b005b341561073157600080fd5b610739612319565b6040518082815260200191505060405180910390f35b341561075a57600080fd5b61076261231f565b6040518080602001828103825283818151815260200191508051906020019080838360005b838110156107a2578082015181840152602081019050610787565b50505050905090810190601f1680156107cf5780820380516001836020036101000a031916815260200191505b509250505060405180910390f35b34156107e857600080fd5b610841600480803590602001908201803590602001908080601f016020809104026020016040519081016040528093929190818152602001838380828437820191505050505050919080359060200190919050506123bd565b604051808781526020018681526020018060200180602001858152602001848152602001838103835287818151815260200191508051906020019080838360005b8381101561089d578082015181840152602081019050610882565b50505050905090810190601f1680156108ca5780820380516001836020036101000a031916815260200191505b50838103825286818151815260200191508051906020019080838360005b838110156109035780820151818401526020810190506108e8565b50505050905090810190601f1680156109305780820380516001836020036101000a031916815260200191505b509850505050505050505060405180910390f35b341561094f57600080fd5b610957612831565b6040518082815260200191505060405180910390f35b341561097857600080fd5b6109d1600480803590602001908201803590602001908080601f01602080910402602001604051908101604052809392919081815260200183838082843782019150505050505091908035906020019091905050612837565b6040518080602001858152602001848152602001838152602001828103825286818151815260200191508051906020019080838360005b83811015610a23578082015181840152602081019050610a08565b50505050905090810190601f168015610a505780820380516001836020036101000a031916815260200191505b509550505050505060405180910390f35b610a69612afc565b6000806005856040518082805190602001908083835b602083101515610aa45780518252602082019150602081019050602083039250610a7f565b6001836020036101000a038019825116818451168082178552505050505050905001915050908152602001604051809103902060020160008581526020019081526020016000206004016005866040518082805190602001908083835b602083101515610b265780518252602082019150602081019050602083039250610b01565b6001836020036101000a03801982511681845116808217855250505050505090500191505090815260200160405180910390206002016000868152602001908152602001600020600201546005876040518082805190602001908083835b602083101515610ba95780518252602082019150602081019050602083039250610b84565b6001836020036101000a0380198251168184511680821785525050505050509050019150509081526020016040518091039020600201600087815260200190815260200160002060030154828054600181600116156101000203166002900480601f016020809104026020016040519081016040528092919081815260200182805460018160011615610100020316600290048015610c895780601f10610c5e57610100808354040283529160200191610c89565b820191906000526020600020905b815481529060010190602001808311610c6c57829003601f168201915b505050505092509250925092509250925092565b610ca5612afc565b6000826005846040518082805190602001908083835b602083101515610ce05780518252602082019150602081019050602083039250610cbb565b6001836020036101000a03801982511681845116808217855250505050505090500191505090815260200160405180910390206001015491509150915091565b60035481565b60015481565b600080600080610d3a612afc565b610d42612afc565b6006886040518082805190602001908083835b602083101515610d7a5780518252602082019150602081019050602083039250610d55565b6001836020036101000a03801982511681845116808217855250505050505090500191505090815260200160405180910390206002016000888152602001908152602001600020600001546006896040518082805190602001908083835b602083101515610dfd5780518252602082019150602081019050602083039250610dd8565b6001836020036101000a038019825116818451168082178552505050505050905001915050908152602001604051809103902060020160008981526020019081526020016000206001015460068a6040518082805190602001908083835b602083101515610e805780518252602082019150602081019050602083039250610e5b565b6001836020036101000a038019825116818451168082178552505050505050905001915050908152602001604051809103902060020160008a81526020019081526020016000206002015460068b6040518082805190602001908083835b602083101515610f035780518252602082019150602081019050602083039250610ede565b6001836020036101000a038019825116818451168082178552505050505050905001915050908152602001604051809103902060020160008b81526020019081526020016000206003015460068c6040518082805190602001908083835b602083101515610f865780518252602082019150602081019050602083039250610f61565b6001836020036101000a038019825116818451168082178552505050505050905001915050908152602001604051809103902060020160008c815260200190815260200160002060080160068d6040518082805190602001908083835b6020831015156110085780518252602082019150602081019050602083039250610fe3565b6001836020036101000a038019825116818451168082178552505050505050905001915050908152602001604051809103902060020160008d8152602001908152602001600020600401818054600181600116156101000203166002900480601f0160208091040260200160405190810160405280929190818152602001828054600181600116156101000203166002900480156110e75780601f106110bc576101008083540402835291602001916110e7565b820191906000526020600020905b8154815290600101906020018083116110ca57829003601f168201915b50505050509150808054600181600116156101000203166002900480601f0160208091040260200160405190810160405280929190818152602001828054600181600116156101000203166002900480156111835780601f1061115857610100808354040283529160200191611183565b820191906000526020600020905b81548152906001019060200180831161116657829003601f168201915b505050505090509550955095509550955095509295509295509295565b846005866040518082805190602001908083835b6020831015156111d957805182526020820191506020810190506020830392506111b4565b6001836020036101000a03801982511681845116808217855250505050505090500191505090815260200160405180910390206000019080519060200190611222929190612b10565b506005856040518082805190602001908083835b60208310151561125b5780518252602082019150602081019050602083039250611236565b6001836020036101000a038019825116818451168082178552505050505050905001915050908152602001604051809103902060010160008154809291906001019190505550836005866040518082805190602001908083835b6020831015156112da57805182526020820191506020810190506020830392506112b5565b6001836020036101000a038019825116818451168082178552505050505050905001915050908152602001604051809103902060020160006005886040518082805190602001908083835b60208310151561134a5780518252602082019150602081019050602083039250611325565b6001836020036101000a038019825116818451168082178552505050505050905001915050908152602001604051809103902060010154815260200190815260200160002060000181905550826005866040518082805190602001908083835b6020831015156113cf57805182526020820191506020810190506020830392506113aa565b6001836020036101000a038019825116818451168082178552505050505050905001915050908152602001604051809103902060020160006005886040518082805190602001908083835b60208310151561143f578051825260208201915060208101905060208303925061141a565b6001836020036101000a038019825116818451168082178552505050505050905001915050908152602001604051809103902060010154815260200190815260200160002060010181905550816005866040518082805190602001908083835b6020831015156114c4578051825260208201915060208101905060208303925061149f565b6001836020036101000a038019825116818451168082178552505050505050905001915050908152602001604051809103902060020160006005886040518082805190602001908083835b602083101515611534578051825260208201915060208101905060208303925061150f565b6001836020036101000a0380198251168184511680821785525050505050509050019150509081526020016040518091039020600101548152602001908152602001600020600401908051906020019061158f929190612b10565b50806005866040518082805190602001908083835b6020831015156115c957805182526020820191506020810190506020830392506115a4565b6001836020036101000a038019825116818451168082178552505050505050905001915050908152602001604051809103902060020160006005886040518082805190602001908083835b6020831015156116395780518252602082019150602081019050602083039250611614565b6001836020036101000a03801982511681845116808217855250505050505090500191505090815260200160405180910390206001015481526020019081526020016000206005019080519060200190611694929190612b10565b508284026001540160018190555083600254036002819055506001546005866040518082805190602001908083835b6020831015156116e857805182526020820191506020810190506020830392506116c3565b6001836020036101000a038019825116818451168082178552505050505050905001915050908152602001604051809103902060020160006005886040518082805190602001908083835b6020831015156117585780518252602082019150602081019050602083039250611733565b6001836020036101000a0380198251168184511680821785525050505050509050019150509081526020016040518091039020600101548152602001908152602001600020600201819055506002546005866040518082805190602001908083835b6020831015156117df57805182526020820191506020810190506020830392506117ba565b6001836020036101000a038019825116818451168082178552505050505050905001915050908152602001604051809103902060020160006005886040518082805190602001908083835b60208310151561184f578051825260208201915060208101905060208303925061182a565b6001836020036101000a0380198251168184511680821785525050505050509050019150509081526020016040518091039020600101548152602001908152602001600020600301819055505050505050565b6118aa612afc565b6000826006846040518082805190602001908083835b6020831015156118e557805182526020820191506020810190506020830392506118c0565b6001836020036101000a03801982511681845116808217855250505050505090500191505090815260200160405180910390206001015491509150915091565b866006886040518082805190602001908083835b60208310151561195e5780518252602082019150602081019050602083039250611939565b6001836020036101000a038019825116818451168082178552505050505050905001915050908152602001604051809103902060000190805190602001906119a7929190612b10565b506006876040518082805190602001908083835b6020831015156119e057805182526020820191506020810190506020830392506119bb565b6001836020036101000a038019825116818451168082178552505050505050905001915050908152602001604051809103902060010160008154809291906001019190505550856006886040518082805190602001908083835b602083101515611a5f5780518252602082019150602081019050602083039250611a3a565b6001836020036101000a0380198251168184511680821785525050505050509050019150509081526020016040518091039020600201600060068a6040518082805190602001908083835b602083101515611acf5780518252602082019150602081019050602083039250611aaa565b6001836020036101000a038019825116818451168082178552505050505050905001915050908152602001604051809103902060010154815260200190815260200160002060000181905550846006886040518082805190602001908083835b602083101515611b545780518252602082019150602081019050602083039250611b2f565b6001836020036101000a0380198251168184511680821785525050505050509050019150509081526020016040518091039020600201600060068a6040518082805190602001908083835b602083101515611bc45780518252602082019150602081019050602083039250611b9f565b6001836020036101000a038019825116818451168082178552505050505050905001915050908152602001604051809103902060010154815260200190815260200160002060010181905550836006886040518082805190602001908083835b602083101515611c495780518252602082019150602081019050602083039250611c24565b6001836020036101000a0380198251168184511680821785525050505050509050019150509081526020016040518091039020600201600060068a6040518082805190602001908083835b602083101515611cb95780518252602082019150602081019050602083039250611c94565b6001836020036101000a038019825116818451168082178552505050505050905001915050908152602001604051809103902060010154815260200190815260200160002060020181905550826006886040518082805190602001908083835b602083101515611d3e5780518252602082019150602081019050602083039250611d19565b6001836020036101000a0380198251168184511680821785525050505050509050019150509081526020016040518091039020600201600060068a6040518082805190602001908083835b602083101515611dae5780518252602082019150602081019050602083039250611d89565b6001836020036101000a038019825116818451168082178552505050505050905001915050908152602001604051809103902060010154815260200190815260200160002060030181905550816006886040518082805190602001908083835b602083101515611e335780518252602082019150602081019050602083039250611e0e565b6001836020036101000a0380198251168184511680821785525050505050509050019150509081526020016040518091039020600201600060068a6040518082805190602001908083835b602083101515611ea35780518252602082019150602081019050602083039250611e7e565b6001836020036101000a03801982511681845116808217855250505050505090500191505090815260200160405180910390206001015481526020019081526020016000206008019080519060200190611efe929190612b10565b50806006886040518082805190602001908083835b602083101515611f385780518252602082019150602081019050602083039250611f13565b6001836020036101000a0380198251168184511680821785525050505050509050019150509081526020016040518091039020600201600060068a6040518082805190602001908083835b602083101515611fa85780518252602082019150602081019050602083039250611f83565b6001836020036101000a03801982511681845116808217855250505050505090500191505090815260200160405180910390206001015481526020019081526020016000206004019080519060200190612003929190612b10565b508560035401600381905550836004540160048190555082840285870201600154036001819055506003546006886040518082805190602001908083835b6020831015156120665780518252602082019150602081019050602083039250612041565b6001836020036101000a0380198251168184511680821785525050505050509050019150509081526020016040518091039020600201600060068a6040518082805190602001908083835b6020831015156120d657805182526020820191506020810190506020830392506120b1565b6001836020036101000a0380198251168184511680821785525050505050509050019150509081526020016040518091039020600101548152602001908152602001600020600501819055506004546006886040518082805190602001908083835b60208310151561215d5780518252602082019150602081019050602083039250612138565b6001836020036101000a0380198251168184511680821785525050505050509050019150509081526020016040518091039020600201600060068a6040518082805190602001908083835b6020831015156121cd57805182526020820191506020810190506020830392506121a8565b6001836020036101000a0380198251168184511680821785525050505050509050019150509081526020016040518091039020600101548152602001908152602001600020600601819055506001546006886040518082805190602001908083835b602083101515612254578051825260208201915060208101905060208303925061222f565b6001836020036101000a0380198251168184511680821785525050505050509050019150509081526020016040518091039020600201600060068a6040518082805190602001908083835b6020831015156122c4578051825260208201915060208101905060208303925061229f565b6001836020036101000a03801982511681845116808217855250505050505090500191505090815260200160405180910390206001015481526020019081526020016000206007018190555050505050505050565b60045481565b60008054600181600116156101000203166002900480601f0160208091040260200160405190810160405280929190818152602001828054600181600116156101000203166002900480156123b55780601f1061238a576101008083540402835291602001916123b5565b820191906000526020600020905b81548152906001019060200180831161239857829003601f168201915b505050505081565b6000806123c8612afc565b6123d0612afc565b6000806005886040518082805190602001908083835b60208310151561240b57805182526020820191506020810190506020830392506123e6565b6001836020036101000a03801982511681845116808217855250505050505090500191505090815260200160405180910390206002016000888152602001908152602001600020600001546005896040518082805190602001908083835b60208310151561248e5780518252602082019150602081019050602083039250612469565b6001836020036101000a038019825116818451168082178552505050505050905001915050908152602001604051809103902060020160008981526020019081526020016000206001015460058a6040518082805190602001908083835b60208310151561251157805182526020820191506020810190506020830392506124ec565b6001836020036101000a038019825116818451168082178552505050505050905001915050908152602001604051809103902060020160008a815260200190815260200160002060040160058b6040518082805190602001908083835b602083101515612593578051825260208201915060208101905060208303925061256e565b6001836020036101000a038019825116818451168082178552505050505050905001915050908152602001604051809103902060020160008b815260200190815260200160002060050160058c6040518082805190602001908083835b60208310151561261557805182526020820191506020810190506020830392506125f0565b6001836020036101000a038019825116818451168082178552505050505050905001915050908152602001604051809103902060020160008c81526020019081526020016000206002015460058d6040518082805190602001908083835b6020831015156126985780518252602082019150602081019050602083039250612673565b6001836020036101000a038019825116818451168082178552505050505050905001915050908152602001604051809103902060020160008d815260200190815260200160002060030154838054600181600116156101000203166002900480601f0160208091040260200160405190810160405280929190818152602001828054600181600116156101000203166002900480156127785780601f1061274d57610100808354040283529160200191612778565b820191906000526020600020905b81548152906001019060200180831161275b57829003601f168201915b50505050509350828054600181600116156101000203166002900480601f0160208091040260200160405190810160405280929190818152602001828054600181600116156101000203166002900480156128145780601f106127e957610100808354040283529160200191612814565b820191906000526020600020905b8154815290600101906020018083116127f757829003601f168201915b505050505092509550955095509550955095509295509295509295565b60025481565b61283f612afc565b60008060006006866040518082805190602001908083835b60208310151561287c5780518252602082019150602081019050602083039250612857565b6001836020036101000a038019825116818451168082178552505050505050905001915050908152602001604051809103902060020160008681526020019081526020016000206008016006876040518082805190602001908083835b6020831015156128fe57805182526020820191506020810190506020830392506128d9565b6001836020036101000a03801982511681845116808217855250505050505090500191505090815260200160405180910390206002016000878152602001908152602001600020600701546006886040518082805190602001908083835b602083101515612981578051825260208201915060208101905060208303925061295c565b6001836020036101000a03801982511681845116808217855250505050505090500191505090815260200160405180910390206002016000888152602001908152602001600020600501546006896040518082805190602001908083835b602083101515612a0457805182526020820191506020810190506020830392506129df565b6001836020036101000a0380198251168184511680821785525050505050509050019150509081526020016040518091039020600201600089815260200190815260200160002060060154838054600181600116156101000203166002900480601f016020809104026020016040519081016040528092919081815260200182805460018160011615610100020316600290048015612ae45780601f10612ab957610100808354040283529160200191612ae4565b820191906000526020600020905b815481529060010190602001808311612ac757829003601f168201915b50505050509350935093509350935092959194509250565b602060405190810160405280600081525090565b828054600181600116156101000203166002900490600052602060002090601f016020900481019282601f10612b5157805160ff1916838001178555612b7f565b82800160010185558215612b7f579182015b82811115612b7e578251825591602001919060010190612b63565b5b509050612b8c9190612b90565b5090565b612bb291905b80821115612bae576000816000905550600101612b96565b5090565b905600a165627a7a72305820db9bb31bc3dc3e1026e2bf09320cf86ddbedb7d96fcf61c7061f000d429732950029",
  "source": "pragma solidity ^0.4.11;\n\n   contract CashFlowManagement{\n       \n             string public SME_name;\n             int public SME_balance;\n             int public productInventry;\n             int public component1_Inventry;\n             int public component2_Inventry;\n             \n        function  CashFlowManagement(){\n            \n             SME_name=\"SME\";\n             SME_balance=100000;\n             productInventry=1000;\n             component1_Inventry=1000;\n             component2_Inventry=1000;\n        }\n         \n         struct Selling{\n             int quantity;\n             int price_per_quantity;\n             int sme_balance;\n             int product_inventry;\n             string date;\n             string invoice;\n         }\n         \n         struct Buying{\n             int quantity1;\n             int price_per_quantity1;\n             int quantity2;\n             int price_per_quantity2;\n             string invoice;\n             int component1_inventry;\n             int component2_inventry;\n             int sme_balance;\n             string date;\n             \n         }\n         \n         \n         struct SME_for_Selling{\n             string name;\n             int sellingId;\n             mapping(int => Selling) map2;\n         }\n         \n         \n         struct SME_for_Buying{\n             string name;\n             int buyingId;\n             mapping(int => Buying) map2;\n         }\n         \n         mapping(string => SME_for_Selling) mapSell;\n         \n         mapping(string => SME_for_Buying) mapBuy;\n         \n         function addSelling(string SME_name, int quantity, int price_per_quantity, string date, string invoice){\n             mapSell[SME_name].name=SME_name;\n             mapSell[SME_name].sellingId++;\n             mapSell[SME_name].map2[mapSell[SME_name].sellingId].quantity=quantity;\n             mapSell[SME_name].map2[mapSell[SME_name].sellingId].price_per_quantity=price_per_quantity;\n             mapSell[SME_name].map2[mapSell[SME_name].sellingId].date=date;\n             mapSell[SME_name].map2[mapSell[SME_name].sellingId].invoice=invoice;\n             SME_balance=SME_balance+(quantity*price_per_quantity);\n             productInventry=productInventry-quantity;\n             mapSell[SME_name].map2[mapSell[SME_name].sellingId].sme_balance=SME_balance;\n             mapSell[SME_name].map2[mapSell[SME_name].sellingId].product_inventry=productInventry;\n             \n         }\n         \n         \n         function addBuying(string SME_name, int quantity1, int price_per_quantity1, int quantity2, int price_per_quantity2,string date, string invoice){\n             mapBuy[SME_name].name=SME_name;\n             mapBuy[SME_name].buyingId++;\n             mapBuy[SME_name].map2[mapBuy[SME_name].buyingId].quantity1=quantity1;\n             mapBuy[SME_name].map2[mapBuy[SME_name].buyingId].price_per_quantity1=price_per_quantity1;\n             mapBuy[SME_name].map2[mapBuy[SME_name].buyingId].quantity2=quantity2;\n             mapBuy[SME_name].map2[mapBuy[SME_name].buyingId].price_per_quantity2=price_per_quantity2;\n             mapBuy[SME_name].map2[mapBuy[SME_name].buyingId].date=date;\n             mapBuy[SME_name].map2[mapBuy[SME_name].buyingId].invoice=invoice;\n             component1_Inventry=component1_Inventry+quantity1;\n             component2_Inventry=component2_Inventry+quantity2;\n             SME_balance=SME_balance -((quantity1*price_per_quantity1)+(quantity2*price_per_quantity2));\n             mapBuy[SME_name].map2[mapBuy[SME_name].buyingId].component1_inventry=component1_Inventry;\n             mapBuy[SME_name].map2[mapBuy[SME_name].buyingId].component2_inventry=component2_Inventry;\n             mapBuy[SME_name].map2[mapBuy[SME_name].buyingId].sme_balance=SME_balance;\n         }\n         \n         \n         \n         \n         function getSellingQuantity(string name) constant returns(string _name, int sellingId){\n             return (name, mapSell[name].sellingId);\n         }\n         \n         function getBuyingQuantity(string name) constant returns(string _name,int buyingId ){\n             return (name, mapBuy[name].buyingId);\n         }\n         \n         function sellingDetails(string name, int id) constant returns(int quantity, int price_per_quantity, string date, string invoice ,int sellbalance, int productinventry){\n             return (mapSell[name].map2[id].quantity,mapSell[name].map2[id].price_per_quantity,mapSell[name].map2[id].date,mapSell[name].map2[id].invoice,mapSell[name].map2[id].sme_balance,mapSell[name].map2[id].product_inventry);\n         }\n         \n         function buyingDetails(string name, int id) constant returns(int quantity1, int price_per_quantity1, int quantity2, int price_per_quantity2,string date, string invoice){\n             \n             return (mapBuy[name].map2[id].quantity1,mapBuy[name].map2[id].price_per_quantity1,mapBuy[name].map2[id].quantity2,mapBuy[name].map2[id].price_per_quantity2,mapBuy[name].map2[id].date,mapBuy[name].map2[id].invoice);\n         }\n         \n         \n         function getsellingDetailsForGraph(string name, int id) constant returns( string date ,int sellbalance, int productinventry){\n             return (mapSell[name].map2[id].date,mapSell[name].map2[id].sme_balance,mapSell[name].map2[id].product_inventry);\n         }\n         \n         \n         \n         function getBuyingDetailsForGraph(string name, int id) constant returns(string date, int smeBalance, int component1inventry, int component2inventry){\n             \n             return (mapBuy[name].map2[id].date,mapBuy[name].map2[id].sme_balance,mapBuy[name].map2[id].component1_inventry,mapBuy[name].map2[id].component2_inventry);\n         }\n         \n         \n         \n         \n         \n   \n  }",
  "sourcePath": "/home/anurag/Anurag Blockchain Projects/DCB Hackathon/CashFlowManagement/contracts/CashFlowManagement.sol",
  "compiler": {
    "name": "solc",
    "version": "0.4.18+commit.9cf6e910.Emscripten.clang"
  },
  "schemaVersion": "1.0.1",
  "updatedAt": "2018-03-12T06:37:56.779Z"
}